S02800005361696C696E6720526F626F742043757272656E74204C6F67676572204E65772E7372656342
S214000000A024002055AC00004DAC00004DAC000014
S2140000104DAC00004DAC00004DAC000000000000F0
S2140000200000000000000000000000004DAC0000D2
S2140000304DAC0000000000004DAC00004DAC0000D0
S2140000404DAC0000F561000005620000156200007E
S214000050256200003562000045620000556200001F
S214000060656200007562000085620000956200000F
S214000070A5620000B5620000C5620000D5620000FF
S214000080E56200004DAC00004DAC00004DAC000039
S2140000904DAC00004DAC00004DAC00004DAC000077
S2140000A04DAC0000551F0000691F00007D1F0000BA
S2140000B0911F0000A51F0000B91F0000CD1F000003
S2140000C0E11F0000F51F0000092000001D200000B1
S2140000D0312000004DAC00004DAC00004DAC0000DF
S2140000E0895100004DAC00004DAC00004DAC000046
S2140000F04DAC00004DAC00004DAC00004DAC000017
S2140001004DAC00004DAC00004DAC00004DAC000006
S2140001104DAC00004DAC00004DAC00004DAC0000F6
S2140001204DAC00004DAC00004DAC00004DAC0000E6
S2140001304DAC00004DAC00004DAC00004DAC0000D6
S2140001404DAC00004DAC00004DAC00004DAC0000C6
S2140001504DAC0000E56000004DAC00004DAC00006A
S2140001604DAC00004DAC00004DAC00004DAC0000A6
S2140001704DAC00004DAC00004DAC00004DAC000096
S21400018008B50548054B1B1A062B00D808BD044BBE
S214000190002BFBD09847F9E7B4310100B7310100D6
S2140001A00000000008B50748074B1B1A9B1003EB1E
S2140001B0D373591000D108BD044A002AFBD09047DB
S2140001C0F9E700BFB4310100B431010000000000BF
S2140001D010B5064C237843B9FFF7D2FF044B13B192
S2140001E00448AFF300800123237010BD800D00206B
S2140001F000000000B431010008B5084B1BB10848E8
S2140002000849AFF300800848036813B1074B03B1F1
S2140002109847BDE80840FFF7C5BF00BF00000000D4
S214000220B4310100840D0020B4310100000000004C
S21400023080B483B000AF0346FB71FB790D2B2BD83F
S21400024001A252F823F000BF8102000085020000E0
S214000250990200008B0200008F0200009902000045
S214000260990200009902000099020000990200001D
S2140002709902000099020000990200009302000013
S214000280094B0AE04FF4004307E0084B05E0084B33
S21400029003E04FF4004300E0002318460C37BD4649
S2140002A05DF8047B704700BF38C10100001BB70033
S2140002B000B4C40480B500AF0120044B9847034641
S2140002C04FF4B76202FB03F3184680BD310200000C
S2140002D080B500AF024B98470346184680BD00BF66
S2140002E0B502000080B48DB000AF78600B46FB709E
S2140002F07B68FB62FB7887F82B3097F82B30002B57
S21400030016D0FB6A7B627B6A3B623B6A5B09FB61D9
S214000310FB6903F5001303F5E1635B02FA6ABA6151
S214000320BA6902F01F02012101FA02F25A6515E0CD
S214000330FB6A7B617B693B613B695B09FB60FB6831
S21400034003F5001303F5E1635B02FA6ABA60BA6864
S21400035002F01F02012101FA02F29A653437BD4607
S2140003605DF8047B704700BF80B483B000AF786050
S2140003700B46FB707B681B687A681268526922F429
S214000380E0625A617B681B687A6812685169FA787D
S214000390120202F4E0620A435A610C37BD465DF869
S2140003A0047B704780B483B000AF78600B46FB7068
S2140003B07B681B687A681268526922F070025A617C
S2140003C07B681B687A6812685169FA78120102F035
S2140003D070020A435A610C37BD465DF8047B7047CD
S2140003E080B483B000AF78607B681B6804221A6014
S2140003F00C37BD465DF8047B704700BF80B483B001
S21400040000AF786039607B681B683A6892B21A62FF
S2140004100C37BD465DF8047B704700BF80B483B0E0
S21400042000AF78607B681B68DB6A9BB218460C37A7
S214000430BD465DF8047B704780B483B000AF78603B
S2140004407B681B689B6818460C37BD465DF8047BC6
S214000450704700BF80B483B000AF786039607B68B7
S2140004601B683A68DA600C37BD465DF8047B704757
S21400047080B500AF0F4B00225A700E4B01221A7047
S2140004800C4B00229A7007200B4B98470346012B13
S21400049001D101230BE00820074B98470346012BA8
S2140004A001D1012303E0054B00221A600023184601
S2140004B080BD00BF700E0020E16C00006C0E0020B6
S2140004C090B589B002AF424A07F110031068186071
S2140004D012791A710023FB603B7B43F004033B73E5
S2140004E0BB7B022262F30303BB73BB7B032262F374
S2140004F00613BB7307F10C033B60364B9847024666
S214000500354BA3FB02139B0A9BB2BB800023BB7137
S21400051000233B8100237B8107F110032F483049DD
S2140005201A46304B98470346002B00D0FEE72B4870
S2140005302D4B98470346002B00D0FEE72B4B5B78ED
S214000540002B14D100200221294B984701200221BC
S214000550274B98473B4621481946264B9847012388
S21400056000931E480121244A4523244CA0471F4BD4
S2140005701B78012B0ED0022B07D0002B00D016E0E4
S214000580164800211E4B984711E0144803211C4BC7
S21400059098470CE011480121194B9847BB880F4833
S2140005A01946184B98470D48174B984700BF0F4BF6
S2140005B09B78002B04D009480121144B984703E090
S2140005C006480021114B98471C37BD4690BD00BF1A
S2140005D030260100D1020000D34D62108C1400209A
S2140005E000800340095F00000D600000700E0020D0
S2140005F08D610000C95F00001106000071600000F8
S21400060069030000FD030000E1030000A5030000ED
S214000610F0B583B000AF10200121354B9847354820
S214000620354B9847034603F00103002B14D0334B99
S2140006301B681E46721C314B1A602E48304B98477A
S21400064003461A462F4B23F816202F4B01221A700A
S214000650284801212D4B9847284B1B68C72B40D9AB
S2140006600F200121224B9847244B00221A600023BA
S2140006707B6012E0234B7A6833F8123098B24FF062
S2140006800001234BD3E90023121843EB0103204952
S214000690C1E900237B6801337B607B68C72BE9DDFB
S2140006A01B4BD3E900231B4E104619464FF0C802D9
S2140006B04FF00003B04702460B461549C1E9002338
S2140006C0134BD3E90023140944EA03741D09E3B26B
S2140006D07F3BDAB2104B83F8E7230F200021044B50
S2140006E0984710200021024B98470C37BD46F0BDB6
S2140006F0E50200008C140020390400006C0E002077
S2140007001D040000780E00209C0D002055040000FB
S214000710300E0020C9D00000A010002080B487B0A2
S21400072000AFF86079813A81FB717A893B89D31AE8
S2140007300733002B00DA0733DB10013BFA6813445B
S2140007401B781A463B8903F0070342FA03F37B61E2
S2140007503B8903F00702FB791344082B16DD7A89E0
S2140007603B89D31A0733002B00DA0733DB10023B32
S214000770FA6813441B781A463B8903F00703C3F153
S214000780080302FA03F37A6913437B613B8903F09B
S2140007900702FB791344102B16DD7A893B89D31A9E
S2140007A00733002B00DA0733DB10033BFA681344E9
S2140007B01B781A463B8903F00703C3F1100302FABD
S2140007C003F37A6913437B613B8903F00702FB79E5
S2140007D01344102B16DD7A893B89D31A0733002B76
S2140007E000DA0733DB10033BFA6813441B781A461B
S2140007F03B8903F00703C3F1100302FA03F37A6997
S21400080013437B61FB79012202FA03F3013B7A6909
S21400081013407B617B6918461C37BD465DF8047B38
S214000820704700BF80B483B000AF0346FB71FB790E
S2140008300D2B2BD801A252F823F000BF750800003C
S214000840790800008D0800007F080000830800007B
S2140008508D0800008D0800008D0800008D0800003F
S2140008608D0800008D0800008D0800008D0800002F
S21400087087080000094B0AE04FF4004307E0084BE6
S21400088005E0084B03E04FF4004300E00023184661
S2140008900C37BD465DF8047B704700BF38C10100C9
S2140008A0001BB70000B4C40480B500AF0120044BA1
S2140008B0984703464FF4B76202FB03F3184680BD21
S2140008C02508000080B500AF024B9847034618463F
S2140008D080BD00BFA908000080B489B000AF786072
S2140008E07B68FB61FB69BB61BB697B617B695B09FC
S2140008F03B613B6903F5001303F5E1635B021A6E87
S214000900FB69FB60FB6803F01F03012101FA03F398
S2140009101340002B0CBF00230123DBB218462437FC
S214000920BD465DF8047B70472DE9B04F00AF2B4BFA
S2140009301B68002B13D12A4B01221A70274C294B17
S21400094098470246284BA3FB02135B0A4FF47A72C1
S21400095002FB03F36360214B01221A603BE0204B4D
S21400096000221A701F4B9847034618464FF00001A6
S21400097002460B464FEA830B4BEA927B4FEA820A0B
S21400098052465B465D0145EAD2655401A41A65EB02
S2140009900305241845EB01054FEAC50949EA5479D1
S2140009A04FEAC40844464D462046294643F2AF6205
S2140009B04FF00003121843EB01030C4C1046194687
S2140009C043F2B0624FF00003A04702460B461346C0
S2140009D01846074B9847BDE8B08F00BF10E000E010
S2140009E0A80D0020C5080000D34D6210C9D0000035
S2140009F00100002080B400AF0C4B1B7883F001038D
S214000A00DBB2002B01D001230BE0094B1B6803F47B
S214000A108033002B04D0064B00221A60012300E02E
S214000A2000231846BD465DF8047B7047A80D0020DD
S214000A3010E000E080B400AF054B1B78002B02D01E
S214000A40044B00221A60BD465DF8047B704700BF69
S214000A50A80D002010E000E080B582B000AF41F69F
S214000A60EE337B6041F2011000211F4B984703468E
S214000A7083F00103DBB2002B01D0002330E01B4BD8
S214000A80984738603B6803F00103002B0CD100BF89
S214000A9040F23A500021144B9847034683F0010376
S214000AA0DBB2002B0AD007E07B685A1E7A60002B68
S214000AB001D1002314E0D5E7002311E00B4B984743
S214000AC0034603F0C043B3F1804F08D1084B1B68C0
S214000AD0074A1268D27B42F00802D2B2DA730123C8
S214000AE018460837BD4680BD5577000029790000B6
S214000AF0A00D002080B586B000AF0346FB7141F61E
S214000B00EE333B6141F2371000212A4B98470346EB
S214000B1083F00103DBB2002B01D0002345E0002365
S214000B207B61FB79002B03D07B6943F080437B61BC
S214000B3041F2291079691F4B9847034683F0010359
S214000B40DBB2002B01D000232FE01B4B9847F86048
S214000B50FB6803F00103002B0CD100BF40F23A50B3
S214000B600021144B9847034683F00103DBB2002BA9
S214000B700AD007E03B695A1E3A61002B01D10023D8
S214000B8013E0BFE7002310E00B4B9847034603F043
S214000B908043002B08D0094B1B68084A1268D27B9A
S214000BA042F00802D2B2DA73012318461837BD465F
S214000BB080BD00BF5577000029790000A00D0020F9
S214000BC080B400AF01231846BD465DF8047B70472D
S214000BD080B584B000AF78607B6800221A7045F25A
S214000BE008504FF4D571114B9847034683F0010324
S214000BF0DBB2002B01D0012314E00D4B9847F860C0
S214000C00FB68B3F1FF3F01D101230BE0FB68C3F3A0
S214000C100B03B3F5D57F01D0002303E07B680122E8
S214000C201A70012318461037BD4680BD5577000060
S214000C302979000090B589B002AF78600023009350
S214000C40364800214FF400720123354CA047034676
S214000C5083F00103DBB2002B01D0002359E0002310
S214000C60FB820FE007F1100318462E4B9847034609
S214000C7083F00103DBB2002B01D0002349E0FB8A9E
S214000C800133FB82FB8A312BECD93B69DBB203F0E4
S214000C900203DAB27B681A70234B1B6812331846BD
S214000CA080213E220C23214CA047024640F6FF73CB
S214000CB09A4219D10FE007F10C031846194B9847D2
S214000CC0034683F00103DBB2002B01D0002320E0B3
S214000CD0FB8A0133FB82FB8A352BECD9124B1B684F
S214000CE0FA6852085A6010E00FE007F10C03184645
S214000CF00C4B9847034683F00103DBB2002B01D070
S214000D00002306E0FB8A0133FB82FB8A7F2BECD9AB
S214000D10012318461C37BD4690BD00BF08110800C9
S214000D207D77000041790000A00D00201D0700001F
S214000D3090B583B002AF154B1B689B891B0401223C
S214000D4000921348194610220123124CA04703466E
S214000D5083F00103DBB2002B01D0002311E00B4B24
S214000D601B681233184601210B4B9847034683F045
S214000D700103DBB2002B01D0002302E0074B9847AB
S214000D80034618460437BD4690BD00BFA00D0020A0
S214000D90091108007D770000D5790000657A00000B
S214000DA0B0B584B000AF484B1B681233184680219C
S214000DB07A220423454CA0470346013B032B0BD85D
S214000DC001A252F823F000BFE30D0000ED0D000075
S214000DD0F70D0000010E00003B4B1B6812221A7430
S214000DE013E0394B1B6814221A740EE0364B1B684E
S214000DF022221A7409E0344B1B6830221A7404E06D
S214000E00314B1B6840221A7400BF2F4B1B681233ED
S214000E1018468021602208232C4CA047F860FB6807
S214000E2003F007022A4B53F82230BB60FB68DB084E
S214000E3003F00F02274B53F822307B60224B1B68CF
S214000E40BA68796801FB02F24FF47A7101FB02F28C
S214000E501A601D4B1B681233184680213E220C2355
S214000E601A4CA047024640F6FF739A4229D0164B0A
S214000E701B681233184680213E220C23134CA047D1
S214000E8003465C1C104B1B681233184680212F2229
S214000E9003230E4DA8470346023304FA03F33B60D0
S214000EA0094B1C68084B1B681233184680215022D9
S214000EB00423064DA84703463A6802FA03F39B0A42
S214000EC063601037BD46B0BDA00D00201D070000B2
S214000ED03826010094260100B0B584B000AF364B2A
S214000EE01B6812331846802160220823334CA04723
S214000EF0F860FB6803F00702314B53F82230BB6002
S214000F00FB68DB0803F00F022E4B53F822307B60A1
S214000F10294B1B68BA68796801FB02F24FF47A71B4
S214000F2001FB02F21A60244B1B681233184680211C
S214000F307E220223214CA0470346002B0FD01E4BD7
S214000F401C681D4B1B68123318468021302216235E
S214000F501A4DA847034601335B02636029E0164B2F
S214000F601B681233184680213E220C23134CA047E0
S214000F7003465C1C104B1B681233184680212F2238
S214000F8003230E4DA8470346023304FA03F33B60DF
S214000F90094B1C68084B1B681233184680215022E8
S214000FA00423064DA84703463A6802FA03F39B0A51
S214000FB063601037BD46B0BDA00D00201D070000C1
S214000FC0382601005426010080B582B000AF124BCF
S214000FD07B6041F60D300021104B9847034683F0A6
S214000FE00103DBB2002B01D0002310E00C4B984726
S214000FF00346DBB2002B02D100BF012307E07B686B
S2140010005A1E7A60002B01D1002300E0E1E7184663
S2140010100837BD4680BD00BF400D03005577000071
S2140010202979000090B585B002AF374B1B689B89C5
S2140010301B0441F237101946344B9847034683F099
S2140010400103DBB2002B01D0002359E001230093FB
S2140010502F480021082201232E4CA047034683F088
S2140010600103DBB2002B01D0002349E03B461846C3
S2140010700121294B9847034683F00103DBB2002B7E
S21400108001D000233CE0254B9847034683F001033C
S214001090DBB2002B01D0002332E03B46184640214D
S2140010A0382204231E4CA0470346012B09D0012BEF
S2140010B002D3022B0AD01DE0134B1B6810221A74B1
S2140010C01DE0114B1B681A221A7418E03B4618469E
S2140010D040212F220123124CA0470346012B04D1A6
S2140010E0094B1B6830221A7409E0074B1B68202244
S2140010F01A7404E0044B1B6810221A7400BF012304
S21400110018460C37BD4690BDA00D00205577000050
S214001110331108007D770000D5790000657A00005D
S2140011201D07000080B582B000AF0346FB71FB7957
S214001130002B01D00423A5E0FA7954491346DB00BE
S21400114013449B000B4408331B681846504B9847C3
S2140011500346002B18D0FA794C491346DB0013449B
S2140011609B000B4408339B79012B01D1494B9847D0
S214001170FA7946491346DB0013449B000B440833B8
S21400118004229A7102237DE0FA7940491346DB0077
S21400119013449B000B4408339B79042B0DD1FA793A
S2140011A03A491346DB0013449B000B4408330122E4
S2140011B09A71394B9847022364E0FA79334913460B
S2140011C0DB0013449B000B4408339B79012B30D182
S2140011D0324B9847034683F00103DBB2002B01D065
S2140011E002234FE0FA7929491346DB0013449B009B
S2140011F00B44083302229A71FA7924491346DB001D
S21400120013449B000B44264A1A60FA791F4913467A
S214001210DB0013449B000B44103301225A70FA790A
S2140012201A491346DB0013449B000B44203300226C
S2140012309A70FA7915491346DB0013449B000B4459
S21400124008339B79032B01D103231BE0154BFA7956
S2140012501A70FA791346DB0013449B000B4A1A44B3
S214001260114B1A60114B9847FA7908491346DB0070
S21400127013449B000B4408339B79022B14BF0023B6
S2140012800123DBB218460837BD4680BD8C0400201B
S214001290D9080000350A000029090000F5090000F9
S2140012A0801A06009D0D0020A00D0020B11200003F
S2140012B098B500AF094B1878094B1B681968084B9E
S2140012C01B685A7C064B1B6893F82230002B0CBF19
S2140012D000230123DBB2034CA04798BD9D0D0020E0
S2140012E0A00D00207576000080B500AF044B1B787B
S2140012F0002B04D1024B1B781846024B984780BD42
S2140013009D0D0020DD76000080B582B000AF002382
S214001310FB71544B1B680122DA73524B1B68002288
S2140013201A74504B1B6800229A814F4B98474FF413
S214001330885000214D4B9847034683F00103DBB2EB
S214001340002B01D0002388E0FB1D1846484B984729
S214001350034683F00103DBB2002B01D000237CE0C0
S214001360444B9847034683F00103DBB2002B01D0C1
S214001370002372E03B4B1B68DB7B03F00103002B72
S2140013801ED0FB7918463C4B9847034683F0010372
S214001390DBB2002B07D0334B1B680222DA73374BC5
S2140013A09847034659E041F23B1000212F4B9847DF
S2140013B0034683F00103DBB2002B01D000234CE090
S2140013C0284B1B68DB7B03F00103002B15D02C4B4E
S2140013D09847034683F00103DBB2002B01D00023BD
S2140013E03BE0284B9847284B9847034683F0010379
S2140013F0DBB2002B01D000232FE01A4B1B68DB7BEF
S21400140003F00103002B14D0164B1B68DB7B03F0A4
S2140014100803002B0DD141F210104FF40071134B4E
S2140014209847034683F00103DBB2002B01D000236C
S21400143013E00C4B1B68DB7B03F00103002B09D089
S214001440124B9847034683F00103DBB2002B01D012
S214001450002302E00E4B9847012318460837BD4686
S21400146080BD00BFA00D0020157700005577000056
S214001470D10B0000C10B0000F50A00009514000017
S214001480310D0000D90E000025100000C90F000025
S214001490B112000080B582B000AF4FF48850002132
S2140014A02E4B9847034683F00103DBB2002B01D096
S2140014B000234EE02A4B9847034683F00103DBB235
S2140014C0002B01D0002344E041F23B100021234BC7
S2140014D09847034683F00103DBB2002B01D00023BC
S2140014E037E0204B9847034683F00103DBB2002B1E
S2140014F001D000232DE01C4B98471C4B1B681B7C1F
S2140015003F2B0BD9FB1D1846194B9847034683F013
S2140015100103DBB2002B01D000231AE041F21010C9
S2140015204FF400710D4B9847034683F00103DBB27E
S214001530002B01D000230CE00E4B9847034683F0A7
S2140015400103DBB2002B01D0002302E00A4B9847D0
S214001550012318460837BD4680BD00BF55770000FA
S214001560590A0000310D0000A10D0000A00D00205A
S214001570350C0000C90F0000B112000080B582B023
S21400158000AF0023FB710CE0FA790B491346DB0031
S21400159013449B000B44083304229A71FB790133F1
S2140015A0FB71FB79002BEFD0044BFF221A70044B23
S2140015B098470837BD4680BD8C0400209D0D00204E
S2140015C03D76000080B584B000AF0346FB71FB7922
S2140015D01846114B98470346FB73FB7B012B03D041
S2140015E00E4B9847FB7B13E00D4B98470346002BAA
S2140015F007D00C4B1B6800229A73084B98470123B0
S21400160006E0084B1B6803229A73044B9847032393
S21400161018461037BD4680BD25110000E9120000AF
S21400162009130000A00D002080B582B000AF03466D
S214001630FB71FB791846084B98470346002B01D0F0
S214001640002304E0054B9847054B1B68DB7B1846D8
S2140016500837BD4680BD00BF25110000E912000016
S214001660A00D002080B582B000AF0346FB71FB7969
S2140016701846084B98470346002B01D0002304E089
S214001680054B9847054B1B685B6818460837BD46F0
S21400169080BD00BF25110000E9120000A00D00204B
S2140016A080B483B000AF0346FB71002318460C37A6
S2140016B0BD465DF8047B704790B589B002AF3960CF
S2140016C013460246FA71BB80FB791846234B9847AF
S2140016D00346FB73FB7B002B01D0FB7B3AE0204BE1
S2140016E09847034683F00103DBB2002B03D01D4B63
S2140016F0984705232EE0BB88012B02D91A4B7B6145
S21400170001E01A4B7B611A4B1B68DB7B03F0080376
S214001710002B02D03B683B6102E03B685B023B610A
S214001720BB8801220092786939694FF40072114C27
S214001730A047034683F00103DBB2002B03D0094B1E
S2140017409847052306E00C4BBA881A800B4BBA88DC
S2140017501A80002318461C37BD4690BD2511000090
S214001760C90F0000E9120000121110001111080044
S214001770A00D00207D770000A60D0020A40D0020FF
S21400178080B582B000AF78600B467B807B88786837
S21400179019460C4B9847034683F00103DBB2002B37
S2140017A004D0094B00221A80052307E0064B1A884E
S2140017B07B88D31A9AB2044B1A800023184608373F
S2140017C0BD4680BDD5790000A60D002080B582B04C
S2140017D000AF0346FB711B4B9847034683F001039B
S2140017E0DBB2002B01D0052327E0FB79002B03D0CA
S2140017F0154B00221A8005E0134B1B88002B01D0E6
S21400180000231AE0114B1B88012B03D1104B98477D
S214001810002312E043F20C1000210E4B98470346BB
S21400182083F00103DBB2002B04D043F20C1000213E
S214001830084B9847064B9847002318460837BD467E
S21400184080BD00BF657A0000A60D0020A40D002014
S214001850E91200005577000090B589B002AF3960F4
S21400186013460246FA71BB80FB791846234B98470D
S2140018700346FB73FB7B002B01D0FB7B39E0FB7937
S21400188018461F4B98470346002B03D01D4B98471E
S21400189007232EE0BB88012B02D91B4B7B6101E09E
S2140018A01A4B7B611A4B1B68DB7B03F00803002B8B
S2140018B002D03B683B6102E03B685B023B61BB8851
S2140018C001220092786939694FF40072114CA047E2
S2140018D0034683F00103DBB2002B03D0094B984785
S2140018E0052306E00C4BBA881A800C4BBA881A807F
S2140018F0002318461C37BD4690BD00BF25110000CA
S214001900A1160000E91200001991100018910800B5
S214001910A00D00207D770000A60D0020A40D00205D
S21400192080B582B000AF78600B467B807B88786895
S21400193019460C4B9847034683F00103DBB2002B95
S21400194004D0094B00221A80052307E0064B1A88AC
S2140019507B88D31A9AB2044B1A800023184608379D
S214001960BD4680BD757A0000A60D002080B582B009
S21400197000AF0346FB71134B9847034683F0010301
S214001980DBB2002B01D0052317E0FB79002B03D038
S2140019900D4B00221A8005E00B4B1B88002B01D054
S2140019A000230AE0094B1B88012B03D1084B9847FC
S2140019B0002302E0064B9847002318460837BD462A
S2140019C080BD00BF297B0000A60D0020A40D0020CE
S2140019D0E912000080B582B000AF0346FB71FB79C8
S2140019E01846154B98470346012B17D0022B17D0E5
S2140019F0002B1BD1FB79114AD35C002B01D00223AC
S214001A0015E0FB7918460E4B9847034603F0030390
S214001A10002B01D000230AE0022308E0032306E09F
S214001A20FB79064A0021D154022300E00123184620
S214001A300837BD4680BD00BFC5150000AC0D0020B0
S214001A402916000080B500AF0020024B98470346D9
S214001A50184680BDD519000080B582B000AF034699
S214001A603960FB71FB791846074B984703465B00C5
S214001A705A1E3B681A60FB791846044B9847034683
S214001A8018460837BD4680BD65160000D51900000B
S214001A9080B582B000AF786000207968034B984725
S214001AA0034618460837BD4680BD00BF591A0000D9
S214001AB080B582B000AF0346FB71FB791846034B36
S214001AC09847034618460837BD4680BDA116000055
S214001AD080B500AF0020024B98470346184680BDED
S214001AE0B11A000080B483B000AF0346FB71012337
S214001AF018460C37BD465DF8047B704780B500AFCE
S214001B000020024B98470346184680BDE51A0000A1
S214001B1080B584B000AF0346B9607A60FB73FB7B88
S214001B201846B9680122114B98470346002B05D08A
S214001B30022B01D1022314E0012312E000BF7868D3
S214001B4001210B4B98470346002B01D0012308E0E8
S214001B500020084B98470346002B01D0012300E0E5
S214001B60002318461037BD4680BD00BFB9160000DA
S214001B7081170000CD17000080B582B000AF7860F6
S214001B803960002079683A68034B98470346184640
S214001B900837BD4680BD00BF111B000080B584B06D
S214001BA000AF0346B9607A60FB73FB7B1846B968E2
S214001BB00122114B98470346002B05D0022B01D17A
S214001BC0022314E0012312E000BF786801210B4BCA
S214001BD098470346002B01D0012308E00020084B5D
S214001BE098470346002B01D0012300E00023184647
S214001BF01037BD4680BD00BF5918000021190000EF
S214001C006D19000080B582B000AF786039600020A2
S214001C1079683A68034B9847034618460837BD4626
S214001C2080BD00BF9D1B000080B586B000AFF86089
S214001C30B9607A6000237B61FB68002B02D04FF00E
S214001C40FF3314E00FE00C4B1B680C4A126810467A
S214001C50B9689847BB680133BB607B6901337B6119
S214001C607B68013B7B607B68002BECDC7B6918465D
S214001C701837BD4680BD00BF081000201010002099
S214001C8080B586B000AFF860B9607A6000237B61EB
S214001C90FB68012B08D0FB68022B05D0FB68032BE2
S214001CA002D04FF0FF331BE016E00F4B1A680F4BC5
S214001CB01968BB68581CB8601B78084619469047D8
S214001CC00346002B02DA4FF0FF3309E07B6901334D
S214001CD07B617B68013B7B607B68002BE5D17B6981
S214001CE018461837BD4680BD0C1000201010002086
S214001CF080B483B000AF0346FB71084B97F907200A
S214001D005209F97901F01F01012000FA01F143F8A8
S214001D1022100C37BD465DF8047B704700E100E0FA
S214001D2080B483B000AF0346FB71094B97F90720D8
S214001D305209F97901F01F01012000FA01F1603221
S214001D4043F822100C37BD465DF8047B704700BF91
S214001D5000E100E080B483B000AF03463960FB7159
S214001D6097F90730002B0BDA0D49FB7903F00F03C8
S214001D70043B3A68D2B21201D2B20B441A7609E09A
S214001D80084997F907303A68D2B21201D2B20B442A
S214001D9083F800230C37BD465DF8047B704700BF10
S214001DA000ED00E000E100E080B485B000AF7860B0
S214001DB07B68FB60FB685B0918461437BD465DF818
S214001DC0047B704780B485B000AF78607B68FB60AA
S214001DD0FB6803F01F03012202FA03F318461437C8
S214001DE0BD465DF8047B704780B586B000AFF860EE
S214001DF0B9601346FB71294B1B68052B01D90023DC
S214001E0048E00023FB7510E0F868254B984702462B
S214001E1097F91730DB00FF2101FA03F31340002B7C
S214001E2000D006E0FB7D0133FB7597F91730032BD6
S214001E30EADDF8681B4B98470346DBB29B00DAB234
S214001E40FB7D1344DBB21933DBB2BB75134B1A6848
S214001E50154BF96843F83210104B1B68124ADB002A
S214001E601344BA685A6097F9163018460F4B9847CD
S214001E70FB7997F91620104619460D4B984797F9A7
S214001E80163018460B4B9847044B1B685A1C034BDE
S214001E901A60012318461837BD4680BDE00D0020A5
S214001EA0C51D0000A91D0000B00D0020211D00006A
S214001EB0551D0000F11C000080B586B000AF7860AC
S214001EC039607B685B0203F1804303F561233B6165
S214001ED03B69D3F8D030FB60FA683B681A403B6930
S214001EE0C3F8D82000237B6123E0164B7A6953F8A9
S214001EF03230BB60B868144B984702467B689A42FB
S214001F0014D1B868114B98470246FB681340002B63
S214001F100CD00C4A7B69DB0013445B68002B05D0B1
S214001F20084A7B69DB0013445B6898477B6901338A
S214001F307B61074B1B687A699A42D6D31837BD4631
S214001F4080BD00BFB00D0020A91D0000C51D00000B
S214001F50E00D002080B500AF0020FF21014B984720
S214001F6080BD00BFB91E000080B500AF00204FF452
S214001F707F41014B984780BDB91E000080B500AF79
S214001F8000204FF47F01014B984780BDB91E00002A
S214001F9080B500AF00204FF07F41014B984780BDD1
S214001FA0B91E000080B500AF0120FF21014B984705
S214001FB080BD00BFB91E000080B500AF01204FF401
S214001FC07F41014B984780BDB91E000080B500AF29
S214001FD001204FF47F01014B984780BDB91E0000D9
S214001FE080B500AF01204FF07F41014B984780BD80
S214001FF0B91E000080B500AF0220FF21014B9847B4
S21400200080BD00BFB91E000080B500AF02204FF4AF
S2140020107F41014B984780BDB91E000080B500AFD8
S21400202002204FF47F01014B984780BDB91E000087
S21400203080B500AF02204FF07F41014B984780BD2E
S214002040B91E000080B584B000AF0346FB71FB7973
S214002050012B01D9012321E00023FB600CE0FB7972
S2140020601846104B98470346FB72FB7A032B00D0AA
S21400207005E0FB680133FB60FB68012BEFDDFB7AB4
S214002080002B01D0012309E0FB791846064B984740
S2140020900346002B01D0042300E000231846103727
S2140020A0BD4680BD654A0000F94A000080B582B092
S2140020B000AF0346FB71FB791846084B984703466A
S2140020C0002B02D0022B02D003E0002302E0032301
S2140020D000E0012318460837BD4680BD654A00006B
S2140020E080B588B000AFB9607A600246FA73BB73F9
S2140020F0FB7B1846234B98470346FB76FB7E002B5C
S21400210001D1012339E0FA7B07F114031046194682
S2140021101D4B9847BB7BFA7E02FB03F31A467B688F
S2140021201A447B690133F97E01FB03F39A4201D915
S214002130042322E00023FB611AE0FB7EFA6902FB1F
S21400214003F27B681A44FB7EF96901FB03F35B022A
S214002150B9680B44F97B084611461A460B4B98475C
S2140021600346002B01D0012307E0FB690133FB6126
S214002170BA7BFB699A42E0D8002318462037BD4652
S21400218080BD00BFD14A0000994A0000354B0000D0
S21400219080B588B000AFB9607A600246FA73BB7348
S2140021A0FB7B1846234B98470346FB76FB7E002BAB
S2140021B001D1012339E0FA7B07F1140310461946D2
S2140021C01D4B9847BB7BFA7E02FB03F31A467B68DF
S2140021D01A447B690133F97E01FB03F39A4201D965
S2140021E0042322E00023FB611AE0FB7EFA6902FB6F
S2140021F003F27B681A44FB7EF96901FB03F35B027A
S214002200B9680B44F97B084611461A460B4B9847AB
S2140022100346002B01D0012307E0FB690133FB6175
S214002220BA7BFB699A42E0D8002318462037BD46A1
S21400223080BD00BFD14A0000994A0000714B0000E3
S21400224080B584B000AF0B463A600246FA71BB71A7
S2140022500423FB73BB79032B45D801A252F823F065
S214002260CD2200007D22000099220000712200008D
S2140022703B6801221A600023FB7336E0FA7907F107
S2140022800803104619461B4B9847BB685A1C3B6808
S2140022901A600023FB7328E0FB791846164B984714
S2140022A00346BB73BB7B012B0AD0BB7B022B07D03C
S2140022B0BB7B042B04D0BB7B082B01D0012315E08D
S2140022C03B6800221A700023FB730EE0FB79184669
S2140022D00A4B98470346002B02D10023FB7304E009
S2140022E00323FB7301E00423FB73FB7B18461037C4
S2140022F0BD4680BD994A0000D14A0000654A0000EC
S21400230080B582B000AF1748174B984703463B602E
S214002310FB78C3F38503DBB2A3F2BC735A067B8853
S214002320C3F38313DBB25B051A43BB78C3F34403E2
S214002330DBB21B041A433B68C3F30433DBB2DB0295
S2140023401A433B88C3F38513DBB25B011A433B7821
S214002350C3F30503DBB213437B607B68184608377C
S214002360BD4680BD00080F403D4F000080B485B0DC
S21400237000AF03463960FB80FB887F2B02D8FB88C2
S214002380FB8125E03B68002B0CD0FB88FF2B06D892
S214002390FB88A3F18002124B33F8123000E00023D2
S2140023A0FB8115E00023FB810AE0FA890C4B33F829
S2140023B01230FA889A4200D105E0FB890133FB818E
S2140023C0FB897F2BF1D9FB8980339BB2DBB2FB8183
S2140023D0FB8918461437BD465DF8047B704700BF7E
S2140023E0D426010080B485B000AF0346FB800023EE
S2140023F0FB6002E0FB680133FB600F4BFA6833F8C2
S2140024001230002B06D00C4BFA6833F81230FA88DC
S2140024109A42EFD1084BFA6833F81230002B04D0FA
S214002420064BFA6833F8123000E0FB88184614377B
S214002430BD465DF8047B7047D4270100B42901002F
S21400244080B487B000AFF860B9607A60FB687B61E3
S214002450BB683B6107E07B695A1C7A613A69511C8C
S214002460396112781A707B685A1E7A60002BF2D196
S2140024701C37BD465DF8047B704700BF80B487B04C
S21400248000AFF860B9607A60FB687B6105E07B6945
S2140024905A1C7A61BA68D2B21A707B685A1E7A6081
S2140024A0002BF4D11C37BD465DF8047B704700BF97
S2140024B080B489B000AFF860B9607A60FB68FB61F1
S2140024C0BB68BB6100237B6100BF7B685A1E7A60D5
S2140024D0002B0DD0FB695A1CFA611B781A46BB69A3
S2140024E0591CB9611B78D31A7B617B69002BECD031
S2140024F07B6918462437BD465DF8047B704700BFED
S21400250080B483B000AF7860396002E07B68013346
S2140025107B607B681B78002B05D07B681B781A468F
S2140025203B689A42F2D17B681B7818460C37BD464A
S2140025305DF8047B704700BF90B585B000AF78604B
S21400254039607B68DB6AFB60FA683B689A424BD06E
S2140025507B681B79002B32D07B685A787B683033D7
S21400256010461946FA680123224CA0470346002B62
S21400257001D0012339E07B6800221A717B681A6A51
S2140025807B68DB691A44FB689A4218D97B68DB785B
S214002590FB7211E07B68DB69FA681344FB607B68BA
S2140025A05A787B68303310461946FA680123114C76
S2140025B0A047FB7A013BFB72FB7A012BEAD83B680B
S2140025C0002B11D07B685A787B683033104619464A
S2140025D03A680123084CA0470346002B01D001238C
S2140025E003E07B683A68DA62002318461437BD4673
S2140025F090BD00BF91210000E120000090B585B09D
S21400260000AF7860786800214F4B98470346FB730D
S214002610FB7B002B40F092807B681B78032B40F0FE
S21400262081807B685B79002B7CD07B680022DA6235
S2140026307B683033184600214FF40072434B9847AE
S2140026407B68552283F82E227B68AA2283F82F22E5
S2140026507B68522283F830207B68522283F8312030
S2140026607B68612283F832207B68412283F833201E
S2140026707B68722283F814227B68722283F8152204
S2140026807B68412283F816227B68612283F8172232
S2140026907B681B69DAB27B6883F818227B681B6943
S2140026A09BB21B0A9BB2DAB27B6883F819227B685E
S2140026B01B691B0CDAB27B6883F81A227B681B69DD
S2140026C01B0EDAB27B6883F81B227B68DB68DAB203
S2140026D07B6883F81C227B68DB689BB21B0A9BB274
S2140026E0DAB27B6883F81D227B68DB681B0CDAB2E3
S2140026F07B6883F81E227B68DB681B0EDAB27B6879
S21400270083F81F227B6859787B6803F130027B6868
S2140027105B69084611461A4601230D4CA0477B68A4
S21400272000225A717B685B78184600210022094B0C
S21400273098470346002B01D00123FB73FB7B18460A
S2140027401437BD4690BD00BF392500007D2400002B
S214002750912100004122000080B483B000AF786071
S21400276039603B68023B3B607B689B699A1E3B680E
S2140027709A4201D8002307E07B689B783A6802FB00
S21400278003F27B689B6A134418460C37BD465DF817
S214002790047B704780B586B000AF786039603B68D0
S2140027A0012B04D97B689A693B689A4201D80123B9
S2140027B096E07B681B78022B47D0032B65D0012B55
S2140027C040F08C803B687B617B695B087A691344C8
S2140027D07B617B681A6A7B695B0A134478681946D2
S2140027E0414B98470346002B00D077E07B69C3F344
S2140027F008037A68134493F830303B617B690133F1
S2140028007B617B681A6A7B695B0A134478681946A1
S214002810354B98470346002B00D05FE07B69C3F337
S21400282008037A68134493F830301B023A6913435E
S2140028303B613B6803F00103002B02D03B691B0998
S21400284002E03B69C3F30B034AE07B681A6A3B6805
S2140028501B0A134478681946234B98470346002BF7
S21400286000D03BE03B685B0003F4FF7330337A68CC
S2140028701344FB60FB6801331B781B029AB2FB68AB
S2140028801B7813439BB29BB22AE07B681A6A3B68AC
S214002890DB09134478681946134B98470346002B08
S2140028A000D01BE03B689B0003F4FE7330337A686D
S2140028B01344FB60FB6803331B781A06FB6802337D
S2140028C01B781B041A43FB6801331B781B021A4350
S2140028D0FB681B78134323F0704301E04FF0FF338F
S2140028E018461837BD4680BD3925000080B588B02B
S2140028F000AFF860B9607A60BB68012B04D9FB684A
S2140029009A69BB689A4202D80223FB77E3E0FB6829
S2140029101B78022B70D0032B00F09280012B40F026
S214002920D580BB68BB61BB695B08BA691344BB61F1
S214002930FB681A6ABB695B0A1344F8681946684B59
S21400294098470346FB77FB7F002B00D0C0E0BB69AF
S214002950C3F308033033FA6813447B61BB6803F0A3
S2140029600103002B0DD07B691B78DBB203F00F034D
S214002970DAB27B68DBB21B01DBB21343DBB2DBB23D
S21400298001E07B68DBB27A691370BB690133BB6117
S214002990FB6801221A71FB681A6ABB695B0A13445A
S2140029A0F86819464E4B98470346FB77FB7F002B8B
S2140029B000D08DE0BB69C3F308033033FA681344D4
S2140029C07B61BB6803F00103002B03D07B681B0907
S2140029D0DBB20EE07B691B78DBB223F00F03DAB2C2
S2140029E07B681B0ADBB203F00F03DBB21343DBB2D8
S2140029F0DBB27A6913706BE0FB681A6ABB681B0A65
S214002A001344F8681946364B98470346FB77FB7F16
S214002A10002B00D05CE0BB685B0003F4FF73303330
S214002A20FA6813447B617B68DAB27B691A707B694B
S214002A3001337A6892B2120A92B2D2B21A7047E0A2
S214002A40FB681A6ABB68DB091344F8681946244B0E
S214002A5098470346FB77FB7F002B00D038E0BB6827
S214002A609B0003F4FE733033FA6813447B617B6982
S214002A7003331B781A067B6902331B781B041A4340
S214002A807B6901331B781B021A437B691B7813434F
S214002A9003F070437A6813437B607B68DAB27B6925
S214002AA01A707B6901337A6892B2120A92B2D2B275
S214002AB01A707B6902337A68120CD2B21A707B697C
S214002AC003337A68120ED2B21A7001E00223FB7743
S214002AD0FB6801221A71FB7F18462037BD4680BD71
S214002AE03925000080B584B000AF786039603B6857
S214002AF0012B04D97B689A693B689A4202D8022364
S214002B00FB7337E00023FB732FE0786839681C4BB3
S214002B109847B860BB68002B00D12BE0BB68012B40
S214002B2002D10223FB7325E0BB68B3F1FF3F02D15D
S214002B300123FB731EE0786839680022114B984722
S214002B400346FB73FB7B002B00D013E07B681B69FE
S214002B50B3F1FF3F07D07B681B695A1C7B681A617C
S214002B607B6801225A71BB683B607B689A693B6848
S214002B709A42CAD8FB7B18461037BD4680BD00BFB8
S214002B8095270000ED28000080B586B000AF78607D
S214002B9039603B68002B0DD17B68DB683B613B6985
S214002BA0002B04D07B689A693B699A4215D80123AA
S214002BB03B6112E078683968394B9847B860BB6863
S214002BC0012B01D8012366E07B689A69BB689A42AC
S214002BD001D9BB685FE03B683B613B697B617B6911
S214002BE001337B617B689A697B699A4207D8022326
S214002BF07B617A693B699A4201D900234BE0786889
S214002C007969274B9847B860BB68002B0CD100BF8A
S214002C10786879696FF07042224B98470346FB73D9
S214002C20FB7B002B1AD10FE0BB68B3F1FF3F02D04D
S214002C30BB68012B01D1BB682DE07A693B699A42DB
S214002C4001D1002327E0CAE73B68002B06D078684E
S214002C5039687A69134B98470346FB73FB7B002B56
S214002C6010D17B687A69DA607B681B69B3F1FF3F35
S214002C7010D07B681B695A1E7B681A617B6801222C
S214002C805A7107E0FB7B012B02D14FF0FF3300E0C7
S214002C9001237B617B6918461837BD4680BD00BF9F
S214002CA095270000ED28000080B584B000AF78605E
S214002CB00B467B807B687A88DA807B689B68FB6043
S214002CC0FB68012B05D07B681B689A69FB689A42F3
S214002CD001D8022364E0FB68002B08D17B681B68E0
S214002CE01B78032B03D17B681B685B6AFB60FB6861
S214002CF0002B14D17B68FA68DA607B681B681B8936
S214002D007A889A4201D302234AE07B681B685A6A93
S214002D107B881B099BB21A447B681A6135E07B6886
S214002D201B689B781B017B811BE07B681B68184631
S214002D30F9681D4B9847F860FB68B3F1FF3F01D177
S214002D4001232DE0FB68012B05D97B681B689A6977
S214002D50FB689A4201D8022322E07A887B89D31A3C
S214002D607B807A887B899A42DFD27B68FA68DA6051
S214002D707B681B681846F9680C4B984702467B88A8
S214002D801B099BB21A447B681A617B681A687B88A9
S214002D9003F00F035B0130331A447B685A6100234B
S214002DA018461037BD4680BD9527000059270000FD
S214002DB090B585B000AF786039607B68DB880133FA
S214002DC03B813B89002B03D07B681B69002B01D11C
S214002DD00423BCE03B8903F00F039BB2002B40F0BA
S214002DE0A8807B681B695A1C7B681A617B68DB6855
S214002DF0002B08D17B681B681B893A899A42C0F071
S214002E0098800423A3E03B891B099BB21A467B6883
S214002E101B689B78013B1340002B40F08A807B6840
S214002E201A687B68DB68104619464B4B9847F86073
S214002E30FB68012B01D8022389E0FB68B3F1FF3F52
S214002E4001D1012383E07B681B689A69FB689A427C
S214002E5063D83B68002B01D1042378E07B681A68AE
S214002E607B68DB68104619463C4B9847F860FB6861
S214002E70002B01D107236AE0FB68012B01D1022356
S214002E8065E0FB68B3F1FF3F01D101235FE07B689B
S214002E901B6818460021324B98470346002B01D08A
S214002EA0012354E07B681B683033184600214FF43A
S214002EB000722C4B98477B681C687B681B6818461A
S214002EC0F968294B98470346E3620023FB7216E035
S214002ED07B681B6801221A717B681B6818460021F4
S214002EE01F4B98470346002B01D001232FE07B6839
S214002EF01B68DA6A0132DA62FB7A0133FB727B689E
S214002F001B689B78FA7A9A42E2D37B681B687A68D9
S214002F101268D16AFA7A8A1ADA627B68FA68DA6024
S214002F207B681B681846F9680F4B984702467B6813
S214002F301A617B683A89DA807B681A683B8903F0F5
S214002F400F035B0130331A447B685A61002318462E
S214002F501437BD4690BD00BF95270000892B0000A2
S214002F60392500007D2400005927000080B586B072
S214002F7000AF786039603B681B7823F040035A1E28
S214002F8013465B0013449B0013447B6100233B61A4
S214002F900123FB81294A3B6913441B7801333A68B5
S214002FA013441B781B029AB224493B690B441B78D6
S214002FB039680B441B7813439BB2BB81FB89002BFB
S214002FC018D0BB8918461E4B98470346FB817B6981
S214002FD0FE2B0DD87B695A1C7A615B007A68134415
S214002FE01B881846164B98470346FA899A4208D01B
S214002FF000231FE0BA894FF6FF739A4201D00023E0
S21400300018E03B6901333B613B690C2BC2D93B6836
S2140030101B7803F04003002B0BD0FB89002B08D055
S2140030207B695B007A6813441B88002B01D0002361
S21400303000E0012318461837BD4680BD942B0100DA
S214003040E523000080B489B000AFF860B960FA717B
S214003050BB71BB680D33BA791A70BB680B330F228D
S2140030601A70BB680C3300221A70BB681A33002231
S2140030701A70BB681B3300221A70FB795A1E13465F
S2140030805B0013449B001344FB610023FB82002378
S214003090BB61FA8A4FF6FF739A4207D0FB695A1C47
S2140030A0FA615B00FA6813441B88FB821C4ABB6902
S2140030B013441B78BA681344FA8AD2B21A70184AB4
S2140030C0BB6913441B780133BA681344FA8A120AA0
S2140030D092B2D2B21A70FB8A002B02D14FF6FF735F
S2140030E0FB82BB690133BB61BB690C2BD1D9FA8A61
S2140030F04FF6FF739A4206D0FB695B00FA681344EA
S2140031001B88002B03D1FB7943F04003FB71BB689F
S214003110FA791A702437BD465DF8047B704700BF05
S214003120942B010080B58AB000AFF860B9607A6071
S2140031307B80F868B9680B22334B98477B88052B51
S2140031400FD97B889AB25208DB0313439AB27B6886
S214003150991C79601B8813447B807B681B88002B36
S214003160EFD107233B627B88DBB203F00F03DBB2B1
S214003170303387F8273097F82730392B04D997F85B
S2140031802730073387F827303B6A5A1E3A6207F122
S21400319028010B4497F8272003F8142C7B881B097A
S2140031A07B807B88002BDED107F114023B6A134438
S2140031B07E221A700023FB6102E0FB690133FB618B
S2140031C0FA693B6A9A4205D2FA68FB6913441B788F
S2140031D0202BF2D1FB695A1CFA61FA681A443B6A42
S2140031E0072B08D83B6A591C396207F128010B44A3
S2140031F013F8143C00E020231370FB69072BE9D971
S2140032002837BD4680BD00BF4124000080B485B08D
S21400321000AF78600023FB730B23BB60FB7BDAB246
S2140032205208DB011343DAB27B68591C79601B78BD
S2140032301344FB73BB68013BBB60BB68002BEDD13E
S214003240FB7B18461437BD465DF8047B704700BF0D
S21400325080B586B000AF786078680021504B9847FC
S2140032600346FB75FB7D002B01D0FB7D93E0FF231F
S2140032703B753B7D7B757B681A687B681B691046CF
S2140032801946484B98470346FB75FB7D002B00D03C
S21400329080E07B685B693B613B691B78BB75BB7DE7
S2140032A0002B02D10423FB7574E03B690B331B78BB
S2140032B003F03F03FB73BB7DE52B07D0FB7B03F0DE
S2140032C00803002B05D0FB7B0F2B02D0FF237B755A
S2140032D056E0FB7B0F2B2FD17B68DB69002B4FD092
S2140032E0BB7D03F04003002B0CD03B695B7B3B753A
S2140032F0BB7D23F04003BB75BB7D7B757B68DA889E
S2140033007B681A84BA7D7B7D9A4212D13B690D3365
S2140033101B783A7D9A420CD17B68DB69184639697E
S214003320214B98470346002B03D07B7D013BDBB245
S21400333000E0FF237B7523E07B7D002B07D13869F7
S2140033401A4B984703463A7D9A4200D122E0FF2363
S2140033507B757B684FF6FF721A847B689B690B331C
S2140033601B7803F00103002B0AD17B689B69386940
S21400337019460B220E4B98470346002B00D109E056
S214003380786800210B4B98470346FB75FB7D002BA6
S2140033903FF471AFFB7D18461837BD4680BD00BFB1
S2140033A0A92C0000392500006D2F00000D3200000A
S2140033B0B1240000B12D000090B58DB000AF78604C
S2140033C07B689B697B627B68DB693B6207F10C0369
S2140033D01846796A0C22924B9847FB7D03F001034E
S2140033E0002B35D07B6A0B3300221A707B680022D4
S2140033F0DA610123BB8515E007F10C02BB8D786A04
S21400340011463A6A874CA0477868874B9847034628
S21400341087F82F3097F82F30002B00D005E0BB8DB3
S2140034200133BB85BB8D632BE6D9BB8D642B01D1E5
S2140034300723F0E097F82F30042B02D097F82F30B0
S214003440E9E07B6A0B33FA7D1A707B683A6ADA61C8
S214003450FB7D03F00203002B16D000237B8502E0E1
S2140034607B8D01337B857B8D5B003A6A13441B881A
S214003470002BF5D17B8D19336C4A82FB0312921018
S214003480DB17D31A7B8501E001237B857868002152
S214003490674B9847034687F82F3097F82F30002B56
S2140034A002D097F82F30B6E000233B853B8DBB85D6
S2140034B07B681A687B681B69104619465D4B9847FF
S2140034C0034687F82F3097F82F30002B00D025E0E2
S2140034D07B685B691B78FB77FB7FE52B02D0FB7F65
S2140034E0002B0ED1BB8D002B02D17B68DB883B8581
S2140034F0BB8D0133BB85BA8D7B8D9A4200D10DE022
S21400350001E00023BB85786801214B4B98470346B2
S21400351087F82F3097F82F30002BC9D097F82F3028
S214003520002B46D17B8D012B43D93B8D78681946FD
S2140035303F4B9847034687F82F3097F82F30002BDD
S21400354037D17B689B6918463C4B98470346BB7748
S2140035507B8D013B7B857B681A687B681B69104600
S2140035601946344B9847034687F82F3097F82F3084
S214003570002B00D01DE07B68D8697B6859697B8D7D
S214003580DAB2BB7F2E4CA0477B681B6801221A71FB
S21400359078680021284B9847034687F82F3097F81D
S2140035A02F30002B05D17B8D013B7B857B8D002B3F
S2140035B0D1D197F82F30002B2BD17B681A687B6807
S2140035C01B69104619461B4B9847034687F82F3051
S2140035D097F82F30002B1CD17B685B69BB61B869FC
S2140035E000212022174B98477B689B69B8691946CB
S2140035F00B220B4B9847BB690C337A6892690B32E7
S214003600127802F01802D2B21A707B681B68012288
S2140036101A7197F82F3018463437BD4690BD00BF54
S2140036204124000025310000513200004FECC44E0A
S214003630A92C000039250000B12D00000D32000035
S214003640453000007D24000080B58AB000AF786069
S21400365039603B681B683B6102E03B6901333B61B4
S2140036603B691B782F2BF8D03B691B785C2BF4D07A
S2140036707B68DB69FB6000237B617B69BB61BB69A0
S2140036805A1CBA613A6913441B78BB84BB8C1F2B47
S2140036902FD9BB8C2F2B2CD0BB8C5C2B29D07B69D5
S2140036A0FE2B01D9062381E1BB8CDBB2BB84BB8C2D
S2140036B018460121934B98470346BB84BB8C002BCE
S2140036C001D1062372E1BB8C7F2B09D8BB8C8E48B8
S2140036D019468E4B98470346002B01D0062365E11A
S2140036E07B695A1C7A615B00FA681344BA8C1A80AC
S2140036F0C5E73A69BB691A443B681A60BB8C1F2B46
S21400370001D8042300E0002387F8263012E07B6906
S21400371003F10043013B5B00FA6813441B88BB843B
S214003720BB8C202B03D0BB8C2E2B00D005E07B69F6
S214003730013B7B617B69002BE9D17B69002B01D1C2
S214003740062333E17B695B00FA68134400221A8083
S2140037507B689B69184620210B226D4B98470023F7
S214003760BB6102E0BB690133BB61BB695B00FA6801
S21400377013441B88202BF5D0BB695B00FA68134402
S2140037801B882E2BEED0BB69002B06D097F8263070
S21400379043F0030387F8263003E002E07B69013B31
S2140037A07B617B69002B09D07B6903F10043013BF9
S2140037B05B00FA6813441B882E2BEFD100233B6274
S2140037C0002387F827300823FB61BB695A1CBA61BF
S2140037D05B00FA6813441B88BB84BB8C002B00D1AB
S2140037E09CE0BB8C202B06D0BB8C2E2B0AD1BA6952
S2140037F07B699A4206D097F8263043F0030387F891
S21400380026307EE03A6AFB699A4203D2BA697B693F
S2140038109A4224D1FB690B2B06D197F8263043F049
S214003820030387F8263079E0BA697B699A4205D0A7
S21400383097F8263043F0030387F82630BA697B6989
S2140038409A4200D96AE07B69BB6108233B620B237E
S214003850FB6197F827309B0087F8273051E0BB8C38
S2140038607F2B14D9BB8C18460021264B984703465D
S214003870BB84BB8C002B04D0BB8C803B254AD35C1E
S214003880BB8497F8263043F0020387F82630BB8CBB
S214003890002B07D0BB8C204819461C4B9847034684
S2140038A0002B08D05F23BB8497F8263043F0030331
S2140038B087F826301BE0BB8C402B09D9BB8C5A2BD3
S2140038C006D897F8273043F0020387F827300EE033
S2140038D0BB8C602B0BD9BB8C7A2B08D897F827307B
S2140038E043F0010387F82730BB8C203BBB847B6802
S2140038F09A693B6A591C39621344BA8CD2B21A7060
S21400390063E762E76D230000A42B01000125000099
S2140039107D240000EC2B0100B02B01007B689B6926
S2140039201B78E52B03D17B689B6905221A70FB691F
S214003930082B04D197F827309B0087F8273097F894
S214003940273003F00C030C2B05D097F8273003F034
S2140039500303032B05D197F8263043F0020387F8BC
S214003960263097F8263003F00203002B17D197F87D
S214003970273003F00303012B05D197F8263043F0D8
S214003980100387F8263097F8273003F00C03042B33
S21400399005D197F8263043F0080387F826307B6871
S2140039A09B690B3397F826201A7000231846283791
S2140039B0BD4680BD80B584B000AF786039603B6896
S2140039C01B782F2B03D03B681B785C2B02D13B68FF
S2140039D001333B607B6800229A603B681B781F2B94
S2140039E009D8786800212F4B98470346FB737B68FD
S2140039F000225A6151E03B46786819462A4B9847A0
S214003A000346FB73FB7B002B00D046E07868274B11
S214003A1098470346FB737B689B69DB7ABB73FB7B2B
S214003A20002B0CD0FB7B042B00D036E0BB7B03F0D6
S214003A300403002B02D10523FB732EE02DE0BB7B95
S214003A4003F00403002B00D027E07B685B69BB60B3
S214003A50BB680B331B7803F01003002B02D1052341
S214003A60FB731AE0BB6815331B781B029AB2BB685F
S214003A7014331B7813439BB29BB21A04BB681B33E8
S214003A801B781B0299B2BB681A331B780B439BB298
S214003A909BB21A437B689A60ADE7FB7B18461037EB
S214003AA0BD4680BDA92C00004936000051320000FA
S214003AB090B583B000AF786039607B685A787B68D1
S214003AC03033104619463A680123274CA047034670
S214003AD0002B01D0032342E07B6893F82F321B02B1
S214003AE09AB27B6893F82E3213439BB21AB21F4BDE
S214003AF09A4201D0022332E07B6893F869301A06B6
S214003B007B6893F868301B041A437B6893F8673029
S214003B101B021A437B6893F86630134323F07F42F8
S214003B20134B9A4201D1002319E07B6893F8853045
S214003B301A067B6893F884301B041A437B6893F854
S214003B4083301B021A437B6893F88230134323F0BA
S214003B507F42074B9A4201D1002300E0012318461A
S214003B600C37BD4690BD00BFE120000055AAFFFF00
S214003B704641540090B593B000AFF860B960134664
S214003B80FB71FB681B68FB62FB6A1B78303B3B647F
S214003B903B6C092B0BD8FB6A01331B783A2B06D1FA
S214003BA0FB6A0233FB62FB68FA6A1A6001E00023D4
S214003BB03B643B6C072B01D90B2374E2A64B3A6C93
S214003BC053F82230BB62BB68BA6A1A60BB6A002B25
S214003BD001D10C2367E2BB6A1B78002B1AD0BB6AA4
S214003BE05B7818469D4B9847034687F8273097F82A
S214003BF0273003F00103002B0CD1FB79002B07D0F4
S214003C0097F8273003F00403002B01D00A234AE27A
S214003C10002348E2BB6A00221A703B6CDAB2BB6A29
S214003C205A70BB6A5B7818468D4B9847034687F8F0
S214003C30273097F8273003F00103002B01D0032329
S214003C4031E2FB79002B07D097F8273003F0040306
S214003C50002B01D00A2326E20023FB63B86AF96B27
S214003C60804B9847034687F8473097F84730012B34
S214003C7033D1002387F8463097F84630002B04D01F
S214003C8097F84630013B87F8463097F846301B01D8
S214003C9003F5DF733033BA6A13443B623B6A04337E
S214003CA01B78002B19D03B6A0B331B781A063B6A2D
S214003CB00A331B781B041A433B6A09331B781B0222
S214003CC01A433B6A08331B781343FB63B86AF96BE5
S214003CD0644B9847034687F8473097F84730032BDE
S214003CE001D10123DFE197F84730002B01D00D23E7
S214003CF0D9E1BB6A93F83C301B029AB2BB6A93F8D0
S214003D003B3013439BB21BB2B3F5007F01D00D23AB
S214003D10C9E1BB6A93F847301B029AB2BB6A93F8B4
S214003D20463013439BB29BB2BB63BB6B002B12D1D6
S214003D30BB6A93F857301A06BB6A93F856301B04D2
S214003D401A43BB6A93F855301B021A43BB6A93F8B2
S214003D5054301343BB63BB6ABA6BDA61BB6A93F831
S214003D604030FB77BB6AFA7FDA70FB7F012B04D00A
S214003D70FB7F022B01D00D2395E1FA7FBB6B02FB84
S214003D8003F3BB63BB6A93F83D30FB77BB6AFA7FED
S214003D909A70FB7F002B05D0FA7FFB7F013B134018
S214003DA0002B01D00D237EE1BB6A93F842301B0244
S214003DB09AB2BB6A93F8413013439BB29AB2BB6A7D
S214003DC01A81BB6A1B8903F00F039BB2002B01D03C
S214003DD00D2368E1BB6A93F844301B029AB2BB6AB3
S214003DE093F8433013439BB29BB27B637B6B002BF1
S214003DF012D1BB6A93F853301A06BB6A93F8523056
S214003E001B041A43BB6A93F851301B021A43BB6A61
S214003E1093F8503013437B63BB6A93F83F301B0222
S214003E209AB2BB6A93F83E3013439BB2BB83BB8BFC
S214003E30002B01D10D2336E1BA8BBB6B1A44BB6A4B
S214003E401B891B099BB21344BB617A6BBB699A4200
S214003E500AD20D2327E100BFE40D0020AD200000AC
S214003E6045200000B13A00007A6BBB69D21ABB6AE3
S214003E709B78B2FBF3F37B617B69002B01D10D23AA
S214003E8011E1012387F847307A6940F6F5739A42C4
S214003E9002D9022387F847307A694FF6F5739A42BB
S214003EA002D9032387F847307B699A1CBB6A9A615C
S214003EB0FA6BBB691A44BB6A9A62BA8BFB6B1A44EC
S214003EC0BB6A1A6297F84730032B1ED1BB6A1B8960
S214003ED0002B01D00D23E6E0BB6A93F85F301A068C
S214003EE0BB6A93F85E301B041A43BB6A93F85D30D6
S214003EF01B021A43BB6A93F85C301A43BB6A5A62C9
S214003F00BB6A9B699B003B631FE0BB6A1B89002B57
S214003F1001D10D23C7E0BB6A1A6ABB6B1A44BB6AA1
S214003F205A6297F84730022B03D1BB6A9B695B0045
S214003F300AE0BB6A9A6913465B0013445A08BB6AD8
S214003F409B6903F0010313443B63BB6ADA693B6B6E
S214003F5003F2FF135B0A9A4201D20D23A3E0BB6A69
S214003F604FF0FF321A61BB6A0022DA6097F84730DA
S214003F70032B40F08380BB6A00225A71BB6A93F819
S214003F8061301B029AB2BB6A93F8603013439BB24F
S214003F909BB21A46FB6B1A44BB6A5A61BB6A5978D5
S214003FA0BB6A03F13002BB6A5B69084611461A46D3
S214003FB001233F4CA0470346002B5FD1BB6A93F812
S214003FC02F321B029AB2BB6A93F82E3213439BB26F
S214003FD01AB2384B9A4251D1BB6A93F833301A065C
S214003FE0BB6A93F832301B041A43BB6A93F831302D
S214003FF01B021A43BB6A93F830301A432E4B9A4280
S2140040003CD1BB6A93F817321A06BB6A93F816328D
S2140040101B041A43BB6A93F815321B021A43BB6A89
S21400402093F814321A43254B9A4227D1BB6A93F869
S2140040301F321A06BB6A93F81E321B041A43BB6A69
S21400404093F81D321B021A43BB6A93F81C321A43BC
S214004050BB6ADA60BB6A93F81B321A06BB6A93F82F
S2140040601A321B041A43BB6A93F819321B021A430E
S214004070BB6A93F818321A43BB6A1A61BB6A97F890
S21400408047201A700E4B1B8801339AB20C4B1A80CD
S2140040900B4B1A88BB6ADA80BB6A0022DA62BB6AFC
S2140040A000221A71002318464C37BD4690BD00BF4B
S2140040B0E120000055AAFFFF525261417272416131
S2140040C0040E002080B582B000AF78600B467B807F
S2140040D07B68002B08D07B681B78002B04D07B689D
S2140040E0DB887A889A4201D009230CE07B685B78EB
S2140040F01846074B9847034603F00103002B01D0F0
S214004100032300E0002318460837BD4680BD00BFE5
S214004110AD20000080B485B000AF03463960FB7167
S214004120FB79072B01D90B2316E0FA790D4B53F8D0
S2140041302230FB60FB68002B02D0FB6800221A705E
S2140041403B68002B02D03B6800221A70FA79054BB8
S214004150396843F82210002318461437BD465DF828
S214004160047B7047E40D002080B5ADF5147D00AFEC
S21400417007F10C03186007F108031960FB1D1A709D
S21400418007F10C031B6800221A60FB1DFA1D12784B
S21400419002F01F021A70FB1D1B7823F00103DBB22E
S2140041A007F1080107F50772084611461A468E4BB6
S2140041B09847034687F84F3207F50473C7F834323A
S2140041C007F11003C7F8383297F84F32002B0BD19F
S2140041D007F108031B6807F5077210461946834B5C
S2140041E09847034687F84F32D7F83032C7F8483238
S2140041F097F84F32002B06D1D7F84832002B02D161
S214004200062387F84F32FB1D1B7803F01C03002B98
S21400421000F0D98097F84F32002B16D097F84F321F
S214004220042B07D107F507731846714B98470346CA
S21400423087F84F32FB1DFA1D127842F008021A70FA
S214004240D7F83032C7F8483214E0D7F848320B3384
S2140042501B7803F01103002B03D0072387F84F3297
S21400426008E0FB1D1B7803F00403002B02D0082394
S21400427087F84F3297F84F32002B40F0A380FB1D93
S2140042801B7803F00803002B00F09C80594B9847DE
S214004290C7F84402D7F848320E33D7F84422D2B2D1
S2140042A01A70D7F848320F33D7F8442292B2120A5F
S2140042B092B2D2B21A70D7F848321033D7F84422E6
S2140042C0120CD2B21A70D7F848321133D7F84422FB
S2140042D0120ED2B21A70D7F848320B3300221A7078
S2140042E0D7F848321C3300221A70D7F848321D33EC
S2140042F000221A70D7F848321E3300221A70D7F8F8
S21400430048321F3300221A70D7F8483215331B780C
S2140043101B029AB2D7F8483214331B7813439BB269
S2140043209BB21A04D7F848321B331B781B0299B28B
S214004330D7F848321A331B780B439BB29BB2134311
S214004340C7F84032D7F848321A3300221A70D7F826
S21400435048321B3300221A70D7F848321433002232
S2140043601A70D7F84832153300221A70D7F81C3264
S21400437001221A71D7F84032002B23D0D7F81C320E
S214004380DB6AC7F84432D7F81C321846D7F8401212
S214004390194B9847034687F84F3297F84F32002B51
S2140043A010D1D7F81C32D7F84022013ADA60D7F895
S2140043B01C321846D7F84412104B9847034687F825
S2140043C04F322EE02DE097F84F32002B29D1D7F848
S2140043D048320B331B7803F01003002B10D0042355
S2140043E087F84F321DE000BF753B0000B53900006E
S2140043F0B933000001230000E52A0000392500003B
S214004400FB1D1B7803F00203002B0AD0D7F84832B6
S2140044100B331B7803F00103002B02D0072387F829
S2140044204F3297F84F32002B18D1FB1D1B7803F044
S2140044300803002B05D0FB1DFA1D127842F020025F
S2140044401A70D7F81C32DA6A07F10C031B68DA61B7
S21400445007F10C031B68D7F848221A6297F84F3208
S214004460002B56D107F10C031B68FA1D12789A71BF
S214004470D7F8483215331B781B029AB2D7F8483261
S21400448014331B7813439BB29BB21A04D7F84832F6
S2140044901B331B781B0299B2D7F848321A331B78A5
S2140044A00B439BB29BB21A4307F10C031B681A61BD
S2140044B0D7F848321F331B781A06D7F848321E330F
S2140044C01B781B041A43D7F848321D331B781B028F
S2140044D01A43D7F848321C331B781A4307F10C03EB
S2140044E01B68DA6007F10C031B6800229A6007F16C
S2140044F00C031B6800229A61D7F81C2207F10C03F4
S2140045001B681A60D7F81C32DA8807F10C031B68A0
S2140045109A8097F84F32184607F51477BD4680BD47
S21400452090B58BB000AFF860B9607A603B60BB684E
S214004530BB613B6800221A60FB681A68FB689B88B0
S21400454010461946874B98470346FB75FB7D002BA4
S21400455001D0FB7D75E1FB689B79DBB25BB2002B7B
S21400456001DA02236DE1FB689B7903F00203002B5E
S21400457001D1072365E1FB68DA687B681A44FB68AB
S214004580DB689A4202D200237B6044E143E1FB6889
S2140045909B68C3F30803002B40F0F780FB689B681A
S2140045A05B0ADAB2FB681B689B78013BDBB2134000
S2140045B0BB75BB7D002B3DD1FB689B68002B10D1E3
S2140045C0FB681B697B627B6A002B13D1FB681B6848
S2140045D018460021644B98477862FB687A6A1A612D
S2140045E008E0FB681A68FB685B69104619465E4B74
S2140045F0984778627B6A002B00D110E17B6A012B1A
S21400460008D1FB689B7963F07F03DAB2FB689A7186
S214004610022316E17B6AB3F1FF3F08D1FB689B7962
S21400462063F07F03DAB2FB689A71012309E1FB6845
S2140046307A6A5A61FB681B68DA6AFB689B699A4269
S21400464011D1FB681B6818460021484B9847034663
S214004650002B08D0FB689B7963F07F03DAB2FB6817
S2140046609A710123EDE0FB681A68FB685B691046E7
S21400467019463F4B984738613B69002B08D1FB68C9
S2140046809B7963F07F03DAB2FB689A710223D8E065
S214004690BB7D3A6913443B617B685B0AFB61FB693F
S2140046A0002B46D0BA7DFB691A44FB681B689B78D2
S2140046B09A4206D9FB681B689B781A46BB7DD31ABC
S2140046C0FB61FB681B685A78FB69DBB21046B96968
S2140046D03A69284CA0470346002B08D0FB689B7914
S2140046E063F07F03DAB2FB689A710123A9E0FB68E6
S2140046F01B68DA6A3B69D21AFB699A4215D2FB68D4
S2140047001B6803F13002FB681B68D96A3B69CB1A49
S2140047105B02B9690B44104619464FF40072164BFB
S2140047209847FB681B6800221A71FB695B023B62B4
S2140047305DE0FB689A68FB68DB689A4222D3FB68F8
S2140047401B6818460021094B98470346002B15D0D6
S214004750FB689B7963F07F03DAB2FB689A710123EA
S2140047606FE000BFC5400000892B0000392500001F
S214004770592700009121000041240000FB681B68B7
S2140047803A69DA62FB683A699A61FB689B68C3F328
S2140047900803C3F500733B623A6A7B689A4201D904
S2140047A07B683B62FB681A68FB689B691046194683
S2140047B0264B98470346002B08D0FB689B7963F08E
S2140047C07F03DAB2FB689A7101233AE0FB681A6845
S2140047D0FB689B68C3F30803303313441846B96973
S2140047E03A6A1B4B9847FB681B6801221A71BA6924
S2140047F03B6A1344BB61FB689A683B6A1A44FB68D1
S2140048009A603B681A683B6A1A443B681A607A6882
S2140048103B6AD31A7B607B68002B7FF4B8AEFB68DC
S2140048209A68FB68DB689A4203D9FB689A68FB685B
S214004830DA60FB689B7943F02003DAB2FB689A7172
S214004840002318462C37BD4690BD00BF3925000012
S2140048504124000080B586B000AF78607B681A6897
S2140048607B689B88104619464B4B98470346FB755A
S214004870FB7D002B40F08B807B689B7903F0200348
S214004880002B00F084807B681A687B68DB69104622
S2140048901946424B98470346FB75FB7D002B76D1A5
S2140048A07B681B6A3B613B690B333A690B321278B3
S2140048B042F02002D2B21A703B691C337A68D26882
S2140048C0D2B21A703B691D337A68D26892B2120A65
S2140048D092B2D2B21A703B691E337A68D268120C52
S2140048E0D2B21A703B691F337A68D268120ED2B2FF
S2140048F01A703B691A337A681269D2B21A703B6929
S2140049001B337A68126992B2120A92B2D2B21A7045
S2140049103B6914337A681269120CD2B21A703B697A
S21400492015337A681269120C92B2120A92B2D2B297
S2140049301A701B4B9847F8603B691633FA68D2B278
S2140049401A703B691733FA6892B2120A92B2D2B260
S2140049501A703B691833FA68120CD2B21A703B69A7
S2140049601933FA68120ED2B21A707B689B7923F05C
S2140049702003DAB27B689A717B681B6801221A7181
S2140049807B681B681846074B98470346FB75FB7DFC
S21400499018461837BD4680BDC540000039250000C2
S2140049A001230000FD25000080B584B000AF7860CC
S2140049B07868074B98470346FB73FB7B002B02D1B6
S2140049C07B6800221A60FB7B18461037BD4680BD08
S2140049D05548000090B587B000AF03463960FB71BC
S2140049E0FB793B7301237B6107F10C0207F110038F
S2140049F0386811467A69074CA0473A697B699A423B
S214004A0001D1012301E04FF0FF3318461C37BD46A5
S214004A1090BD00BF2145000080B584B000AF78602F
S214004A2039600023FB6012E07B681B781846396803
S214004A300B4B98470346B3F1FF3F02D14FF0FF33CD
S214004A400AE07B6801337B60FB680133FB607B68B0
S214004A501B78002BE8D1FB6818461037BD4680BD92
S214004A60D549000080B584B000AF0346FB71FB79E2
S214004A70002B07D1FB79074A5B0113441B68984754
S214004A80034600E00123FB73FB7B18461037BD4648
S214004A9080BD00BF842C010080B584B000AF034603
S214004AA03960FB71FB79002B09D1FB79074A5B0162
S214004AB0134404331B6838689847034600E0012314
S214004AC0FB73FB7B18461037BD4680BD842C010067
S214004AD080B485B000AF0346FB71FB79002B14BF92
S214004AE000230123DBB2FB73FB7B18461437BD465D
S214004AF05DF8047B704700BF80B584B000AF034606
S214004B00FB71FB79002B09D1FB79094A5B01134441
S214004B100C331B6898470346002B01D0012300E0A6
S214004B200023FB73FB7B18461037BD4680BD00BFD5
S214004B30842C010080B586B000AF0346B9607A6069
S214004B40FB73FB7B002B0AD1FB7B084A5B011344FB
S214004B5014331B68B86879689847034600E0012359
S214004B60FB75FB7D18461837BD4680BD842C0100BA
S214004B7080B586B000AF0346B9607A60FB73FB7BF6
S214004B80002B0AD1FB7B084A5B01134418331B68D1
S214004B90B86879689847034600E00123FB75FB7DFB
S214004BA018461837BD4680BD842C010080B483B0FB
S214004BB000AF0346FB71084B97F907205209F979B5
S214004BC001F01F01012000FA01F143F822100C3712
S214004BD0BD465DF8047B704700E100E080B483B01A
S214004BE000AF0346FB71094B97F907205209F97984
S214004BF001F01F01012000FA01F1603243F8221093
S214004C000C37BD465DF8047B704700BF00E100E04E
S214004C1080B483B000AF03463960FB7197F9073064
S214004C20002B0BDA0D49FB7903F00F03043B3A68BF
S214004C30D2B21201D2B20B441A7609E0084997F9AB
S214004C4007303A68D2B21201D2B20B4483F800237E
S214004C500C37BD465DF8047B704700BF00ED00E0F2
S214004C6000E100E080B483B000AFEFF310833B6058
S214004C703B68002B14BF00230123DBB27B6072B6B7
S214004C80BFF35F8F044B00221A707B6818460C3700
S214004C90BD465DF8047B7047B004002080B483B046
S214004CA000AF78607B68002B0CBF00230123DBB2CB
S214004CB018460C37BD465DF8047B704780B582B059
S214004CC000AF78607868074B98470346002B05D0FE
S214004CD0054B01221A70BFF35F8F62B60837BD46D8
S214004CE080BD00BF9D4C0000B004002080B483B09F
S214004CF000AF78607B689B6803F08053002B0CBF86
S214004D0000230123DBB218460C37BD465DF8047B52
S214004D10704700BF80B483B000AF78607B689B6844
S214004D2003F08073002B0CBF00230123DBB2184670
S214004D300C37BD465DF8047B704700BF80B584B075
S214004D4000AF0346FB71084B9847F860FB79074AAB
S214004D50D25C0132D1B2054AD154F868044B984768
S214004D601037BD4680BD00BF654C00001410002003
S214004D70BD4C000080B582B000AF78607868044B08
S214004D8098470720034B98470837BD4680BD00BFAD
S214004D90ED9800003D4D000080B584B000AF78600F
S214004DA0396042F21073FB6007E0FB68013BFB6072
S214004DB0FB68002B01D100237BE078683F4B9847C7
S214004DC00346002BF1D13B685B781B021A467B68D2
S214004DD01A6442F21073FB6007E0FB68013BFB605D
S214004DE0FB68002B01D1002363E07868334B9847BB
S214004DF00346002BF1D17B681B6C43F001027B68F5
S214004E001A6442F21073FB6007E0FB68013BFB602C
S214004E10FB68002B01D100234BE07868274B9847AE
S214004E200346002BF1D13B681B78012B06D13B686B
S214004E309B781B0443F004027B681A603B681B786F
S214004E40002B06D13B689B781B041A467B681A60C9
S214004E50FFE700BF78681A4B98470346002BF9D146
S214004E603B681B78012B04D13B6878689968154B22
S214004E7098473B681B78002B06D13B685B687868D0
S214004E801946114B9847FFE700BF78680C4B9847C8
S214004E900346002BF9D17B681B6843F001027B6850
S214004EA01A6000BF7868064B98470346002BF9D176
S214004EB0012318461037BD4680BD00BFED4C0000EC
S214004EC0154D0000CD4E0000054F000080B582B0A5
S214004ED000AF7860396000BF7868094B9847034692
S214004EE0002BF9D13A687B685A6500BF7868044B96
S214004EF098470346002BF9D10837BD4680BD00BF52
S214004F00154D000080B582B000AF7860396000BFF4
S214004F107868094B98470346002BF9D17B683A68B6
S214004F205A6000BF7868044B98470346002BF9D1B7
S214004F300837BD4680BD00BF154D000080B485B063
S214004F4000AF78607B685B6DFB60FB6818461437C3
S214004F50BD465DF8047B704780B582B000AF7860D0
S214004F60396000BF7868094B98470346002BF9D193
S214004F707B683A681A6300BF7868044B9847034614
S214004F80002BF9D10837BD4680BD00BF154D000087
S214004F9080B582B000AF78600B46FB7000BF7868C3
S214004FA01C4B98470346002BF9D1FB78042B25D8D9
S214004FB001A252F823F000BFCD4F0000D74F0000EB
S214004FC0E14F0000E94F0000F34F00007B684FF40C
S214004FD080721A6113E07B684FF480321A610EE02B
S214004FE07B6801221A610AE07B684FF000721A6142
S214004FF005E07B684FF000521A6100E000BF00BF7A
S2140050007868044B98470346002BF9D10837BD460D
S21400501080BD00BF154D000080B582B000AF78603F
S2140050200B46FB7000BF78681C4B98470346002B66
S214005030F9D1FB78042B25D801A252F823F000BF43
S214005040555000005F50000069500000715000008D
S2140050507B5000007B684FF480725A6113E07B68D7
S2140050604FF480325A610EE07B6801225A610AE0F2
S2140050707B684FF000725A6105E07B684FF0005283
S2140050805A6100E000BF00BF7868044B98470346AB
S214005090002BF9D10837BD4680BD00BF154D000076
S2140050A080B582B000AF78600B46FB7000BF7868B2
S2140050B01C4B98470346002BF9D1FB78042B25D8C8
S2140050C001A252F823F000BFDD500000E7500000B8
S2140050D0F1500000F9500000035100007B684FF4C7
S2140050E08072DA6013E07B684FF48032DA600EE09C
S2140050F07B680122DA600AE07B684FF00072DA60B3
S21400510005E07B684FF00052DA6000E000BF00BFA9
S2140051107868044B98470346002BF9D10837BD46FC
S21400512080BD00BF154D000080B584B000AFF860AC
S2140051307A600A46FA72BB72FA7A0E4B796843F8BE
S2140051402210BB7A5BB218460B4B9847BA7A3B7E66
S21400515052B210461946094B9847BB7A5BB21846BE
S214005160074B9847FB7AF8681946064B984710375E
S214005170BD4680BD1C100020DD4B0000114C000019
S214005180AD4B0000914F000080B500AF014B5B684F
S214005190984780BD1C10002080B582B000AF7860B4
S2140051A00B46FB7000BF7868154B98470346002BEC
S2140051B0F9D1FB78012B0BD0022B10D0002B00D09E
S2140051C014E07B68DB6943F480727B68DA610DE08B
S2140051D07B68DB6943F480327B68DA6106E07B68D3
S2140051E0DB6943F001027B68DA6100BF00BF7868C4
S2140051F0034B98470346002BF9D10837BD4680BDC0
S214005200154D000080B483B000AF0346FB71FB79F8
S2140052100D2B2BD801A252F823F000BF55520000E8
S214005220595200006D5200005F52000063520000A9
S2140052306D5200006D5200006D5200006D5200006D
S2140052406D5200006D5200006D5200006D5200005D
S21400525067520000094B0AE04FF4004307E0084B92
S21400526005E0084B03E04FF4004300E00023184637
S2140052700C37BD465DF8047B704700BF38C101009F
S214005280001BB70000B4C40480B500AF0120044B77
S214005290984703464FF4B76202FB03F3184680BDF7
S2140052A00552000080B500AF024B984703461846EB
S2140052B080BD00BF8952000080B483B000AF786024
S2140052C07B6880221A600C37BD465DF8047B704709
S2140052D080B483B000AF78607B684FF080721A604D
S2140052E00C37BD465DF8047B704700BF80B483B0C2
S2140052F000AF78607B685B6843F001027B685A60A9
S2140053000C37BD465DF8047B704700BF80B483B0A1
S21400531000AF78607B685B6823F002027B685A60A7
S2140053200C37BD465DF8047B704700BF80B483B081
S21400533000AF78607B685B6823F004027B685A6085
S2140053400C37BD465DF8047B704700BF80B483B061
S21400535000AF78607B685B6803F00403002B01D025
S214005360012300E0002318460C37BD465DF8047B99
S214005370704700BF80B483B000AF78607B685B681E
S21400538043F010027B685A600C37BD465DF8047B1C
S214005390704700BF80B483B000AF78607B685B68FE
S2140053A023F080027B685A600C37BD465DF8047BAC
S2140053B0704700BF80B483B000AF78600B467B8038
S2140053C07A887B68DA600C37BD465DF8047B7047E8
S2140053D080B483B000AF78607B689B689BB2184649
S2140053E00C37BD465DF8047B704700BF80B483B0C1
S2140053F000AF78607B681B6903F40073002B01D054
S214005400012300E0002318460C37BD465DF8047BF8
S214005410704700BF80B483B000AF78607B681B69BC
S21400542003F00203002B01D0012300E000231846FE
S2140054300C37BD465DF8047B704700BF80B483B070
S21400544000AF78607B681A6940F20123134040F28F
S2140054500122934201D1012300E0002318460C37B5
S214005460BD465DF8047B704780B582B000AF7860BB
S2140054700B46FB70FB789BB278681946024B984740
S2140054800837BD4680BD00BFB553000080B582B06A
S21400549000AF786039607868044B98470346DAB204
S2140054A03B681A700837BD4680BD00BFD153000068
S2140054B080B582B000AF786078680F4B9847786800
S2140054C00E4B984778680E4B984778680D4B984770
S2140054D078680D4B9847786800210C4B9847786899
S2140054E00B4B984778680B4B9847786800210A4B17
S2140054F098470837BD4680BD5D7B0000B952000066
S214005500ED5200007553000095530000757B0000B7
S2140055100D5300002D530000A97B000090B587B006
S21400552000AFF860B9603B601346FB71214B9847AB
S214005530034638681946204B98470346FB82BB68EB
S2140055401B68F8681946002200231C4CA047BB685D
S2140055501B68F86819460822194B9847BB681A68F2
S214005560FB8ADBB2F86811461A46164B9847BB68AA
S2140055701B68F86819460822134B9847BB681A68D8
S214005580FB795B08DBB2F86811461A460F4B984762
S214005590BB681A68FB7903F00103002B14BF0023D5
S2140055A00123DBB2F86811461A46094B98471C37A8
S2140055B0BD4690BDA5520000657D0000F57D00004B
S2140055C01D7D0000A57D0000797C0000D97B0000D1
S2140055D0297C000080B582B000AF786039607868BA
S2140055E0104B98470346002B0AD03B681B680F2BCE
S2140055F014D83B681B68786819460B4B98470DE033
S2140056003B681B68032B09D83B681B68012202FA1B
S21400561003F3DB4378681946034B98470837BD46C3
S21400562080BD00BF4D530000757B000080B582B082
S21400563000AF7860396000BF7868074B984703462C
S214005640002BF9D078680F21044B98477868044BF4
S21400565098470837BD4680BDED530000757B0000B7
S214005660D152000080B588B000AFF860B9607A60AB
S21400567043F69823FB610023BB6120E043F69823A2
S214005680FB6106E0FB695A1EFA61002B01D1FD237F
S21400569019E0F8680E4B98470346002BF2D0BA681C
S2140056A0BB6913441B78FB75FB7DF8681946094BEC
S2140056B09847BB690133BB617B68013B7B607B68B5
S2140056C0002BDBD100235BB218462037BD4680BDD9
S2140056D0155400006954000080B588B000AFF8602B
S2140056E0B9607A6043F69823FB610023BB6136E01D
S2140056F043F69823FB6106E0FB695A1EFA61002B0D
S21400570001D1FD232FE0F868194B98470346002B7C
S214005710F2D0F868FF21174B984743F69823FB61B1
S21400572006E0FB695A1EFA61002B01D1FD231AE040
S214005730F868114B98470346002BF2D007F1170381
S214005740F86819460D4B9847BA68BB691344FA7D4A
S2140057501A70BB690133BB617B68013B7B607B6869
S214005760002BC5D100235BB218462037BD4680BD4E
S21400577015540000695400003D5400008D5400008C
S21400578080B483B000AF0346FB71FB790D2B2BD89A
S21400579001A252F823F000BFD1570000D5570000F1
S2140057A0E9570000DB570000DF570000E95700000C
S2140057B0E9570000E9570000E9570000E9570000E4
S2140057C0E9570000E9570000E9570000E3570000DA
S2140057D0094B0AE04FF4004307E0084B05E0084B8E
S2140057E003E04FF4004300E0002318460C37BD46A4
S2140057F05DF8047B704700BF38C10100001BB7008E
S21400580000B4C40480B500AF0120044B984703469B
S2140058104FF4B76202FB03F3184680BD81570000C1
S21400582080B500AF024B98470346184680BD00BFC0
S2140058300558000080B584B000AF78607A68104BD9
S2140058409A4202D10823FB7313E07A680D4B9A4202
S21400585002D10923FB730CE07A680B4B9A4202D103
S2140058600A23FB7305E07A68084B9A4201D10B23A2
S214005870FB737868064B98471037BD4680BD00BF5F
S214005880004002400080024000C00240000003408A
S214005890ED98000080B588B000AFF860B9603B6056
S2140058A01346FB713B683B61C0237B61FB79BB61A0
S2140058B00023FB61094B9847034607F11002F8687E
